:020000040800F2
:100000000040012005130008A9120008AB120008E7
:10001000AD120008AF120008B11200080000000085
:10002000000000000000000000000000B312000803
:10003000B512000800000000B7120008B91200084D
:100040004D1300084D1300084D1300084D13000810
:100050004D1300084D1300084D1300084D13000800
:100060004D1300084D1300084D1300084D130008F0
:100070004D1300084D1300084D1300084D130008E0
:100080004D1300084D1300084D1300084D130008D0
:100090004D1300084D1300084D1300084D130008C0
:1000A0004D1300084D1300084D1300084D130008B0
:1000B0004D1300084D1300084D1300084D130008A0
:1000C0004D1300084D1300084D1300084D13000890
:1000D0004D1300084D1300084D1300084D13000880
:1000E0004D1300084D1300084D1300084D13000870
:1000F0004D130008000000004D1300084D130008C8
:100100004D1300084D1300084D1300084D1300084F
:100110004D1300084D1300084D13000800000000A7
:100120004D13000800000000000000000000000067
:0C01300000000000000000005FF808F173
:10013C0010B5054C237833B9044B13B10448AFF315
:10014C0000800123237010BD04000020000000007B
:10015C00A813000808B5034B1BB103490348AFF3C0
:10016C00008008BD0000000008000020A813000853
:10017C00084B10B5044618684FF47A73B0FBF3F0D3
:10018C0000F06AF8002221464FF0FF3000F030F802
:10019C00002010BD0000002008B5032000F016F868
:1001AC000020FFF7E5FF01F01FF8002008BD00005C
:1001BC00024A136801331360704700BF200000200F
:1001CC00014B1868704700BF20000020074A00024E
:1001DC00D36800F4E06023F4E0631B041B0C43F0D1
:1001EC00BF6343F400330343D360704700ED00E07A
:1001FC00174B30B5DC68C4F30224C4F10703251D8A
:10020C00042B28BF0423062D4FF0010598BF0024B2
:10021C0005FA03F303F1FF3388BF033C1940A140F7
:10022C0005FA04F4013C2240002842EA01024FEA9C
:10023C000212AFBF00F16040064B00F00F00D2B2CB
:10024C00A5BFD2B200F561401A5480F8002330BD2E
:10025C0000ED00E014ED00E00138B0F1807F0AD22F
:10026C00F021064B064A586082F823100020072222
:10027C0098601A6070470120704700BF10E000E0E2
:10028C0000ED00E000232DE9F74FD1F80080DFF8F6
:10029C009491624A38FA03F402D103B0BDE8F08FAE
:1002AC004FF0010E0EFA03FE18EA0E0600F0A880BD
:1002BC004C6824F01007022F16D14FF00F0C4FEAA8
:1002CC00D30A00EB8A0A03F0070BDAF820504FEA46
:1002DC008B0B0CFA0BFC25EA0C0C0D6905FA0BF5D3
:1002EC0045EA0C05CAF8205003254FEA430A05FAE3
:1002FC000AF5ED43D0F800B004F0030C0BEA050B43
:10030C000CFA0AFC013F4CEA0B0C012FC0F800C0A0
:10031C0011D8876807EA050BCF6807FA0AFC4CEA84
:10032C000B078760476827EA0E0EC4F300179F403F
:10033C0047EA0E074760C7683D408F6807FA0AF71F
:10034C003D43C560E5005BD54FF00F0CD9F820504C
:10035C0023F0030745F00105C9F82050D9F82050C7
:10036C0007F1804705F00105019507F5803703F08B
:10037C00030E019D4FEA8E0ED7F808A00CFA0EF56D
:10038C002AEA050C264DA8423CD005F58065A8420A
:10039C003AD005F58065A84238D005F58065A842AD
:1003AC0036D005F58065A84234D005F58065A842A5
:1003BC0032D005F58065A84214BF0725062505FA3D
:1003CC000EF545EA0C05BD60F743156814F4803F43
:1003DC000CBF3D4035431560556814F4003F0CBF0D
:1003EC003D4035435560956814F4801F0CBF3D406B
:1003FC0035439560D568A40254BF3D403543D56064
:10040C00013347E70025DAE70125D8E70225D6E7CF
:10041C000325D4E70425D2E70525D0E700040140E5
:10042C0000000240003802400AB1816170470904A3
:10043C00FBE7436959404161704700001C4B82B097
:10044C009A6812F0F00F0CD000221A490B6823F0B6
:10045C00010313430B60086800F00100504002B028
:10046C0070475A6A144912F0805F0FD00A6802F480
:10047C00C052B2F5C05FE7D1B0F5404FE4D10D4AA0
:10048C00136843F0040313600122DEE75A6A42F05A
:10049C0080525A625A6A02F080520192019A0A689A
:1004AC00596A02F4C05221F080515962E1E700BF51
:1004BC0000380240003C02400070004003682DE907
:1004CC00F743D90704466AD423689A0700F1E680FB
:1004DC002368DE0655D5C14DAB6813F00C0F40F008
:1004EC0083814FF4007393FAA3F2296893FAA3F370
:1004FC00B3FA83F3012203F01F0302FA03F30B4256
:10050C0002D0A369002B6ED0B44D206A6B6803F443
:10051C006043984240F24A81FFF790FF002862D175
:10052C006B68226A23F4604313436B6069684FF075
:10053C007F4393FAA3F3B3FA83F2E369934021F078
:10054C007F4213436B604FF4604393FAA3F3B3FA07
:10055C0083F0A24BF0219A6891FAA1F1B1FA81F1E2
:10056C00236A02F0F002C340581C4FF40043CA4007
:10057C009B4983408A5C0020D3409A4A1360FFF762
:10058C00F7FD23681D0700F191812368580700F1DE
:10059C00D381626A002A40F05782002024E08F4BFE
:1005AC009A6802F00C02082A07D09A6802F00C0232
:1005BC000C2A1CD19B68DB0319D54FF4003393FA3A
:1005CC00A3F2864A116893FAA3F3B3FA83F30122D8
:1005DC0003F01F0302FA03F30B423FF475AF636899
:1005EC00002B7FF471AF012003B0BDE8F08363688A
:1005FC007A4D012B20D12B6843F480332B60FFF70D
:10060C00DFFD4FF4003580460126744F95FAA5F3B3
:10061C003A6895FAA5F3B3FA83F303F01F0306FACD
:10062C0003F313427FF450AFFFF7CAFDA0EB0800B1
:10063C006428EBD90320D7E713BB2B684FF40036A3
:10064C0023F480332B602B68012723F480232B6049
:10065C00FFF7B6FD804696FAA6F32A6896FAA6F33B
:10066C00B3FA83F303F01F0307FA03F313423FF4C7
:10067C002BAFFFF7A5FDA0EB08006428EBD9D9E759
:10068C00052B2B6803D143F480232B60B3E723F4B1
:10069C0080332B602B6823F48023AFE74F4B9A6891
:1006AC0002F00C02042A07D09A6802F00C020C2A01
:1006BC0024D19B68DF0321D4022393FAA3F2474A87
:1006CC00106893FAA3F3B3FA83F3012103F01F0329
:1006DC0001FA03F30342134602D0E2688A4282D144
:1006EC0058684FF4F85292FAA2F2B2FA82F12269E7
:1006FC008A4020F4F8510A435A60E9E6E268012581
:10070C0082B395FAA5F3B3FA83F303F1845303F59B
:10071C008E139B001D60FFF753FD022780462F4E62
:10072C0097FAA7F3326897FAA7F3B3FA83F303F0B7
:10073C001F0305FA03F313420DD071684FF4F853FD
:10074C0093FAA3F3B3FA83F22369934021F4F8529A
:10075C0013437360BCE6FFF733FDA0EB08000228DF
:10076C00DED967E795FAA5F3B3FA83F303F1845363
:10077C0003F58E139B001A60FFF722FD02268046BC
:10078C00164F96FAA6F33A6896FAA6F3B3FA83F3E1
:10079C0003F01F0305FA03F313423FF499AEFFF77E
:1007AC000FFDA0EB08000228EBD943E76B6823F49C
:1007BC00604303436B6069684FF07F4393FAA3F384
:1007CC00B3FA83F2E369934021F07F4213436B60E9
:1007DC00FFF734FE00283FF4B6AE04E700380240C1
:1007EC00C013000800000020A2694FF48073002A97
:1007FC0037D093FAA3F3B3FA83F3012603F18453AE
:10080C0003F58E139B001E60FFF7DAFC4FF40077A4
:10081C00804697FAA7F32A6897FAA7F3B3FA83F3FB
:10082C0003F01F0306FA03F3134213D06B68226A1A
:10083C0023F4604313436B6069684FF07F4393FA72
:10084C00A3F3B3FA83F2E369934021F07F4213439D
:10085C006B6096E6FFF7B4FCA0EB08000228D8D931
:10086C00E8E693FAA3F3B3FA83F303F1845303F5A5
:10087C008E139B001A60FFF7A3FC4FF400768046A2
:10088C00012796FAA6F32A6896FAA6F3B3FA83F32D
:10089C0003F01F0307FA03F313423FF472AEFFF7A2
:1008AC008FFCA0EB08000228EBD9C3E66269012596
:1008BC00A94902B395FAA5F3B3FA83F30B449B0051
:1008CC001D60FFF77DFC02268046A44F96FAA6F326
:1008DC007A6B96FAA6F3B3FA83F303F01F0305FAC7
:1008EC0003F313427FF451AEFFF76AFCA0EB080050
:1008FC000228EBD99EE695FAA5F3B3FA83F30B44E1
:10090C009B001A60FFF75CFC02268046934F96FA18
:10091C00A6F37A6B96FAA6F3B3FA83F303F01F03EC
:10092C0005FA03F313423FF430AEFFF749FCA0EB9A
:10093C0008000228EBD97DE6884B5A6AD10034D4E2
:10094C0001265A6A42F080525A625B6A03F0805365
:10095C000193019B824D2B68DA0528D5A3687F4D46
:10096C00012B34D16B6B43F480736B63FFF728FC62
:10097C004FF4007581460127DFF8E08195FAA5F365
:10098C00D8F8342095FAA5F3B3FA83F303F01F03D8
:10099C0007FA03F313424ED0002E3FF4FAAD6F4A20
:1009AC00536A23F080535362F3E50026D2E72B6899
:1009BC0043F480732B60FFF703FC07462B68DB05C1
:1009CC00CCD4FFF7FDFBC01B6428F7D932E623BB60
:1009DC006B6B4FF4007723F480736B636B6B4FF08E
:1009EC00010823F480636B63FFF7EAFB814697FAF7
:1009FC00A7F36A6B97FAA7F3B3FA83F303F01F0319
:100A0C0008FA03F31342C7D0FFF7DAFB41F288333D
:100A1C00A0EB09009842EAD90CE6052B6B6B03D1CD
:100A2C0043F480636B639DE723F480736B636B6BA0
:100A3C0023F4806399E7FFF7C3FB41F28833A0EB03
:100A4C00090098429AD9F5E5444DAB6803F00C03C4
:100A5C000C2B3FF4C8AD022A4FF0807356D193FA99
:100A6C00A3F3B3FA83F3002203F1845303F58E133B
:100A7C009B001A60FFF7A4FB2E4680464FF00077D0
:100A8C00012597FAA7F3326897FAA7F3B3FA83F321
:100A9C0003F01F0305FA03F3134230D1B268A36AC3
:100AAC00E16A22F47D020B431343226B1343B360C0
:100ABC004FF0807393FAA3F3B3FA83F303F18453E7
:100ACC0003F58E139B001D60FFF77AFB4FF000744B
:100ADC0007460125214E94FAA4F3326894FAA4F344
:100AEC00B3FA83F303F01F0305FA03F313427FF405
:100AFC0054ADFFF765FBC01B0228ECD99AE5FFF754
:100B0C005FFBA0EB08000228BBD993E593FAA3F393
:100B1C00B3FA83F3002203F1845303F58E139B0085
:100B2C001A60FFF74DFB4FF000740746012694FA4C
:100B3C00A4F32A6894FAA4F3B3FA83F303F01F0323
:100B4C0006FA03F313423FF428ADFFF739FBC01B41
:100B5C000228ECD96EE500BFA0C19110003802400C
:100B6C00007000401E4910B58B6803F00C02082A77
:100B7C0005D00C2A05D0042A22D11A4810BD1A48D7
:100B8C0010BD4FF4701292FAA2F2B2FA82F203F490
:100B9C00701020FA02F21548845C4FF4400090FA71
:100BAC00A0F0B0FA80F203F440008B68D040DB0375
:100BBC004CBF0D4B0B4B01306343B3FBF0F010BD3E
:100BCC0048684FF4604393FAA3F3B3FA83F300F449
:100BDC006040D840431C4FF40040984010BD00BF0B
:100BEC00003802400024F40000127A00D8130008E8
:100BFC006A4B2DE9F0411A68064602F001028A425E
:100C0C000D4630D33268940740D4D00746D4634B9A
:100C1C001A6802F001029542C0F0AE8032685107AA
:100C2C0000F1B380130707D55D4A3169936823F44B
:100C3C00605343EAC1039360FFF794FF584BF022D3
:100C4C009B6892FAA2F2B2FA82F203F0F003D3405C
:100C5C00544AD35CD840544B18600020FFF788FAF4
:100C6C000020BDE8F081012902BF1A6842F004029D
:100C7C001A601A6822F001020A431A601B6803F01A
:100C8C0001039942BED00120BDE8F0814449B0680F
:100C9C008B6823F0F00303438B60B6E7726840491E
:100CAC00022A0FD14FF4003393FAA3F0086893FA99
:100CBC00A3F3B3FA83F3012103F01F0301FA03F347
:100CCC00034213E0032A02D14FF00073ECE7012A30
:100CDC0029D1022393FAA3F0096893FAA3F3B3FA88
:100CEC0083F303F01F0302FA03F30B42CBD02C4C1B
:100CFC0041F28838A36823F003031A43A260FFF77C
:100D0C005FFA73680746022B10D1A36803F00C033B
:100D1C00082B3FF47CAFFFF753FAC01B4045F4D9C6
:100D2C000320BDE8F0814FF40073BDE7032B0BD11A
:100D3C00A36803F00C030C2B3FF469AFFFF740FAE8
:100D4C00C01B4045F4D9EBE7012B10D1A36803F08D
:100D5C000C03042B3FF45BAFFFF732FAC01B40458A
:100D6C00F4D9DDE7FFF72CFAC01B4045D8D8A368AF
:100D7C0013F00C0FF6D14AE71A6822F001021A6040
:100D8C001B68DA073FF57FAF48E70549F0688B68C9
:100D9C0023F4E06303438B6044E700BF003C024054
:100DAC0000380240C013000800000020084B4FF42C
:100DBC00E0629B6892FAA2F2B2FA82F203F4E06368
:100DCC00D340044AD35C044A1068D840704700BF33
:100DDC0000380240D013000800000020084B4FF4EC
:100DEC0060529B6892FAA2F2B2FA82F203F4605358
:100DFC00D340044AD35C044A1068D840704700BF03
:100E0C0000380240D0130008000000202DE9F04704
:100E1C0081460568C2682B69C16923F440531343AA
:100E2C002B6183680069EA680343D9F8140022F443
:100E3C001642034322F00C020B431343EB606B6925
:100E4C00D9F8182023F440731343B1F5004F6B61AC
:100E5C007E4B7FD19D424FF0190447D1FFF7BEFF67
:100E6C0004FB00F3D9F804704FF064087F00B3FB67
:100E7C00F7F3B3FBF8F31F01FFF7B0FF6043D9F8AA
:100E8C0004305B00B0FBF3F6FFF7A8FF6043D9F822
:100E9C0004305B00B0FBF3F3B3FBF8F308FB136314
:100EAC00DB003233B3FBF8F35B0003F4F876FFF7A7
:100EBC0095FF6043D9F804205200B0FBF2FAFFF71B
:100ECC008DFF6043D9F804305B00B0FBF3F3B3FB48
:100EDC00F8F308FB13A3DB003233B3FBF8F303F096
:100EEC0007033B443344AB60BDE8F087FFF75EFF7C
:100EFC0004FB00F3D9F804704FF064087F00B3FBD7
:100F0C00F7F3B3FBF8F31F01FFF750FF6043D9F879
:100F1C0004305B00B0FBF3F6FFF748FF6043D9F8F1
:100F2C0004305B00B0FBF3F3B3FBF8F308FB136383
:100F3C00DB003233B3FBF8F35B0003F4F876FFF716
:100F4C0035FF6043D9F804205200B0FBF2FAFFF7EA
:100F5C002DFFB6E79D424FF0190443D1FFF73EFF3A
:100F6C0004FB00F3D9F804604FF06408B600B3FB3F
:100F7C00F6F3B3FBF8F31E01FFF730FF6043D9F82B
:100F8C0004309B00B0FBF3F7FFF728FF6043D9F860
:100F9C0004309B00B0FBF3F3B3FBF8F308FB1373C3
:100FAC001B013233B3FBF8F303F0F007FFF716FF26
:100FBC006043D9F804209200B0FBF2FAFFF70EFF61
:100FCC006043D9F804309B00B0FBF3F3B3FBF8F3A8
:100FDC0008FB13A31B013233B3FBF8F303F00F032D
:100FEC003B437FE7FFF7E2FE04FB00F3D9F8046014
:100FFC004FF06408B600B3FBF6F3B3FBF8F31E0135
:10100C00FFF7D4FE6043D9F804309B00B0FBF3F734
:10101C00FFF7CCFE6043D9F804309B00B0FBF3F330
:10102C00B3FBF8F308FB13731B013233B3FBF8F378
:10103C0003F0F007FFF7BAFE6043D9F804209200E2
:10104C00B0FBF2FAFFF7B2FEBAE700BF003801407E
:10105C0010B5044630B390F8393003F0FF021BB9D9
:10106C0080F8382000F0E6F80223226884F8393042
:10107C00D368204623F40053D360FFF7C7FE2368E0
:10108C0000201A6922F490421A615A6922F02A024D
:10109C005A61DA6842F40052DA600123E06384F8A2
:1010AC00393010BD012010BD30B593B03422002171
:1010BC0005A800F06BF900211422684600F066F9CF
:1010CC00124A00241368012523F4C05343F400632F
:1010DC001360022305930E934FF4002310221093F8
:1010EC004FF4000305A80992119308950F94FFF78C
:1010FC00E5F90F220323294668468DE80C0002947B
:10110C0003940494FFF774FD13B030BD00700040DD
:10111C0000B58BB0FFF740F8FFF7C6FF1422002193
:10112C000DEB020000F032F9294B2021DA69294835
:10113C0042F00402DA61DA69002402F0040201923E
:10114C00019ADA69202542F02002DA61DA6902F0AC
:10115C0020020292029ADA6942F00102DA61DA693B
:10116C0002F001020392039ADA6942F00202DA6198
:10117C00DB69002203F002030493049BFFF754F98C
:10118C004FF400530593144B05A914480693079488
:10119C00FFF778F8012305A90E48069305950794E7
:1011AC000894FFF76FF84FF4E1330D480D4A846053
:1011BC0080E80C000C23C460046143618461C46149
:1011CC00FFF746FF29460348FFF733F9FEE700BF58
:1011DC0000380240000002400000111000080240DC
:1011EC0024000020004400401FB5114B07205A6A10
:1011FC0042F000425A625A6A02F000420192019A8D
:10120C001A6A42F001021A621A6A02F00102029290
:10121C00029A5A6A42F080525A625B6A03F0805317
:10122C000393039BFEF7D2FF05B05DF804FB00BFF0
:10123C000038024010B5044688B01422002103A8DF
:10124C0000F0A4F82268134B9A4221D103F5FA332B
:10125C005A6A03A942F400325A625A6A0E4802F4DE
:10126C0000320192019ADA6942F00102DA61DB691B
:10127C0003F001030293029B0C23039302230493B8
:10128C00012305930323069307230793FEF7FAFF25
:10129C0008B010BD00440040000002407047FEE75B
:1012AC00FEE7FEE7FEE7704770477047FEF780BF2A
:1012BC000E4B1A6842F480721A6099680C4A0A4004
:1012CC009A601A6822F0885222F001121A601A6889
:1012DC0022F480221A609A6822F47D029A6000221D
:1012EC00DA604FF00062034B9A607047003802409E
:1012FC000CC0FF8800ED00E0002103E00B4B5B58B5
:10130C00435004310A480B4B42189A42F6D30A4A0E
:10131C0002E0002342F8043B084B9A42F9D3FFF752
:10132C00C7FF00F00FF8FFF7F3FE7047EC1300084F
:10133C0000000020040000200400002064000020B5
:10134C00FEE7000070B500250C4E0D4CA41BA4103C
:10135C00A54209D100F022F800250A4E0A4CA41B24
:10136C00A410A54205D170BD56F82530984701351B
:10137C00EEE756F8253098470135F2E7E4130008FC
:10138C00E4130008E4130008E813000803460244C1
:10139C00934200D1704703F8011BF9E7F8B500BF81
:1013AC00F8BC08BC9E467047F8B500BFF8BC08BC3A
:0413BC009E46704792
:1013C00000000000000000000102030406070809F5
:1013D0000000000001020304030406080C1018209A
:0413E00030000000D9
:0413E400610100089B
:0413E8003D010008BB
:0413EC0068FF1F0077
:0400000508001305D7
:00000001FF
