:020000040800F2
:1000000000400120AD2200084D2200084F220008C8
:100010005122000853220008552200080000000069
:10002000000000000000000000000000F1130008C4
:10003000572200080000000081140008C5140008C1
:10004000F5220008F5220008F5220008F522000834
:10005000F5220008F5220008F5220008F522000824
:10006000F5220008F5220008F5220008F522000814
:10007000F5220008F5220008F5220008F522000804
:10008000F5220008F5220008F5220008F5220008F4
:10009000F5220008F5220008F5220008F5220008E4
:1000A000F5220008F5220008F5220008F5220008D4
:1000B00059220008F5220008F5220008F522000860
:1000C000F5220008F5220008F5220008F5220008B4
:1000D000F5220008F5220008F5220008F5220008A4
:1000E000F5220008F5220008F5220008F522000894
:1000F000F522000800000000F5220008F5220008A3
:10010000F5220008F5220008F5220008F522000873
:10011000F5220008F5220008F52200080000000082
:10012000F5220008000000000000000000000000B0
:0C01300000000000000000005FF808F173
:1001400010B5054C237833B9044B13B10448AFF311
:1001500000800123237010BD080000200000000073
:100160005023000808B5034B1BB103490348AFF304
:10017000008008BD000000000C0000205023000893
:1001800008B5032000F016F8002002F025F801F071
:10019000C7FF002008BD0000024A13680133136046
:1001A000704700BF700D0020014B1868704700BFFA
:1001B000700D0020074A0002D36800F4E06023F4C9
:1001C000E0631B041B0C43F0BF6343F400330343A1
:1001D000D360704700ED00E0174B30B5DC68C4F326
:1001E0000224C4F10703251D042B28BF0423062D78
:1001F0004FF0010598BF002405FA03F303F1FF3324
:1002000088BF033C1940A14005FA04F4013C224098
:10021000002842EA01024FEA0212AFBF00F160403B
:10022000064B00F00F00D2B2A5BFD2B200F561407C
:100230001A5480F8002330BD00ED00E014ED00E01A
:100240000123420900F01F0003FA00F0014B43F8BC
:100250002200704700E100E000232DE9F74FD1F8BC
:100260000080DFF89491624A38FA03F402D103B0B7
:10027000BDE8F08F4FF0010E0EFA03FE18EA0E06ED
:1002800000F0A8804C6824F01007022F16D14FF020
:100290000F0C4FEAD30A00EB8A0A03F0070BDAF8D7
:1002A00020504FEA8B0B0CFA0BFC25EA0C0C0D6965
:1002B00005FA0BF545EA0C05CAF8205003254FEA6C
:1002C000430A05FA0AF5ED43D0F800B004F0030C38
:1002D0000BEA050B0CFA0AFC013F4CEA0B0C012F50
:1002E000C0F800C011D8876807EA050BCF6807FA85
:1002F0000AFC4CEA0B078760476827EA0E0EC4F336
:1003000000179F4047EA0E074760C7683D408F6867
:1003100007FA0AF73D43C560E5005BD54FF00F0CC7
:10032000D9F8205023F0030745F00105C9F8205003
:10033000D9F8205007F1804705F00105019507F530
:10034000803703F0030E019D4FEA8E0ED7F808A008
:100350000CFA0EF52AEA050C264DA8423CD005F50C
:100360008065A8423AD005F58065A84238D005F5E9
:100370008065A84236D005F58065A84234D005F5E1
:100380008065A84232D005F58065A84214BF0725D4
:10039000062505FA0EF545EA0C05BD60F74315681C
:1003A00014F4803F0CBF3D4035431560556814F48C
:1003B000003F0CBF3D4035435560956814F4801FE5
:1003C0000CBF3D4035439560D568A40254BF3D4005
:1003D0003543D560013347E70025DAE70125D8E743
:1003E0000225D6E70325D4E70425D2E70525D0E783
:1003F0000004014000000240003802400369194235
:1004000014BF0120002070470AB1816170470904C0
:10041000FBE700001C4B82B09A6812F0F00F0CD082
:1004200000221A490B6823F0010313430B6008688C
:1004300000F00100504002B070475A6A144912F0AF
:10044000805F0FD00A6802F4C052B2F5C05FE7D1F6
:10045000B0F5404FE4D10D4A136843F00403136034
:100460000122DEE75A6A42F080525A625A6A02F06A
:1004700080520192019A0A68596A02F4C05221F02E
:1004800080515962E1E700BF00380240003C024061
:100490000070004003682DE9F743D90704466AD489
:1004A00023689A0700F1E6802368DE0655D5C14D22
:1004B000AB6813F00C0F40F083814FF4007393FA94
:1004C000A3F2296893FAA3F3B3FA83F3012203F0AA
:1004D0001F0302FA03F30B4202D0A369002B6ED074
:1004E000B44D206A6B6803F46043984240F24A813D
:1004F000FFF790FF002862D16B68226A23F4604303
:1005000013436B6069684FF07F4393FAA3F3B3FA28
:1005100083F2E369934021F07F4213436B604FF411
:10052000604393FAA3F3B3FA83F0A24BF0219A68E5
:1005300091FAA1F1B1FA81F1236A02F0F002C3400D
:10054000581C4FF40043CA409B4983408A5C0020FA
:10055000D3409A4A136001F03FFE23681D0700F163
:1005600091812368580700F1D381626A002A40F024
:100570005782002024E08F4B9A6802F00C02082A70
:1005800007D09A6802F00C020C2A1CD19B68DB038E
:1005900019D54FF4003393FAA3F2864A116893FAFF
:1005A000A3F3B3FA83F3012203F01F0302FA03F368
:1005B0000B423FF475AF6368002B7FF471AF0120ED
:1005C00003B0BDE8F08363687A4D012B20D12B681E
:1005D00043F480332B60FFF7E7FD4FF4003580468E
:1005E0000126744F95FAA5F33A6895FAA5F3B3FA84
:1005F00083F303F01F0306FA03F313427FF450AFB3
:10060000FFF7D2FDA0EB08006428EBD90320D7E761
:1006100013BB2B684FF4003623F480332B602B6818
:10062000012723F480232B60FFF7BEFD804696FA56
:10063000A6F32A6896FAA6F3B3FA83F303F01F032E
:1006400007FA03F313423FF42BAFFFF7ADFDA0EB26
:1006500008006428EBD9D9E7052B2B6803D143F4B4
:1006600080232B60B3E723F480332B602B6823F4C3
:100670008023AFE74F4B9A6802F00C02042A07D0A0
:100680009A6802F00C020C2A24D19B68DF0321D463
:10069000022393FAA3F2474A106893FAA3F3B3FA3A
:1006A00083F3012103F01F0301FA03F3034213460E
:1006B00002D0E2688A4282D158684FF4F85292FA26
:1006C000A2F2B2FA82F122698A4020F4F8510A4378
:1006D0005A60E9E6E268012582B395FAA5F3B3FA18
:1006E00083F303F1845303F58E139B001D60FFF722
:1006F0005BFD022780462F4E97FAA7F3326897FAE0
:10070000A7F3B3FA83F303F01F0305FA03F31342CD
:100710000DD071684FF4F85393FAA3F3B3FA83F250
:100720002369934021F4F85213437360BCE6FFF74A
:100730003BFDA0EB08000228DED967E795FAA5F398
:10074000B3FA83F303F1845303F58E139B001A600D
:10075000FFF72AFD02268046164F96FAA6F33A685E
:1007600096FAA6F3B3FA83F303F01F0305FA03F333
:1007700013423FF499AEFFF717FDA0EB08000228E3
:10078000EBD943E76B6823F4604303436B6069680C
:100790004FF07F4393FAA3F3B3FA83F2E3699340F4
:1007A00021F07F4213436B60FFF734FE00283FF4D3
:1007B000B6AE04E700380240D02300080400002051
:1007C000A2694FF48073002A37D093FAA3F3B3FAE7
:1007D00083F3012603F1845303F58E139B001E60FF
:1007E000FFF7E2FC4FF40077804697FAA7F32A68F8
:1007F00097FAA7F3B3FA83F303F01F0306FA03F3A0
:10080000134213D06B68226A23F4604313436B6076
:1008100069684FF07F4393FAA3F3B3FA83F2E36975
:10082000934021F07F4213436B6096E6FFF7BCFCD8
:10083000A0EB08000228D8D9E8E693FAA3F3B3FAAC
:1008400083F303F1845303F58E139B001A60FFF7C3
:10085000ABFC4FF400768046012796FAA6F32A688F
:1008600096FAA6F3B3FA83F303F01F0307FA03F330
:1008700013423FF472AEFFF797FCA0EB080002288A
:10088000EBD9C3E662690125A94902B395FAA5F33C
:10089000B3FA83F30B449B001D60FFF785FC02262F
:1008A0008046A44F96FAA6F37A6B96FAA6F3B3FAAB
:1008B00083F303F01F0305FA03F313427FF451AEF1
:1008C000FFF772FCA0EB08000228EBD99EE695FA30
:1008D000A5F3B3FA83F30B449B001A60FFF764FCA3
:1008E00002268046934F96FAA6F37A6B96FAA6F301
:1008F000B3FA83F303F01F0305FA03F313423FF443
:1009000030AEFFF751FCA0EB08000228EBD97DE6E2
:10091000884B5A6AD10034D401265A6A42F0805278
:100920005A625B6A03F080530193019B824D2B68EE
:10093000DA0528D5A3687F4D012B34D16B6B43F4C6
:1009400080736B63FFF730FC4FF40075814601271D
:10095000DFF8E08195FAA5F3D8F8342095FAA5F3ED
:10096000B3FA83F303F01F0307FA03F313424ED0E5
:10097000002E3FF4FAAD6F4A536A23F0805353625E
:10098000F3E50026D2E72B6843F480732B60FFF772
:100990000BFC07462B68DB05CCD4FFF705FCC01B1E
:1009A0006428F7D932E623BB6B6B4FF4007723F44E
:1009B00080736B636B6B4FF0010823F480636B6390
:1009C000FFF7F2FB814697FAA7F36A6B97FAA7F352
:1009D000B3FA83F303F01F0308FA03F31342C7D0FB
:1009E000FFF7E2FB41F28833A0EB09009842EAD915
:1009F0000CE6052B6B6B03D143F480636B639DE7BF
:100A000023F480736B636B6B23F4806399E7FFF7C8
:100A1000CBFB41F28833A0EB090098429AD9F5E567
:100A2000444DAB6803F00C030C2B3FF4C8AD022A15
:100A30004FF0807356D193FAA3F3B3FA83F30022F5
:100A400003F1845303F58E139B001A60FFF7ACFB90
:100A50002E4680464FF00077012597FAA7F33268BB
:100A600097FAA7F3B3FA83F303F01F0305FA03F32E
:100A7000134230D1B268A36AE16A22F47D020B43CB
:100A80001343226B1343B3604FF0807393FAA3F3C5
:100A9000B3FA83F303F1845303F58E139B001D60B7
:100AA000FFF782FB4FF0007407460125214E94FAB0
:100AB000A4F3326894FAA4F3B3FA83F303F01F03A8
:100AC00005FA03F313427FF454ADFFF76DFBC01B2F
:100AD0000228ECD99AE5FFF767FBA0EB0800022893
:100AE000BBD993E593FAA3F3B3FA83F3002203F19E
:100AF000845303F58E139B001A60FFF755FB4FF0EC
:100B000000740746012694FAA4F32A6894FAA4F321
:100B1000B3FA83F303F01F0306FA03F313423FF41F
:100B200028ADFFF741FBC01B0228ECD96EE500BFE2
:100B3000A0C1911000380240007000401E4910B55D
:100B40008B6803F00C02082A05D00C2A05D0042A71
:100B500022D11A4810BD1A4810BD4FF4701292FAF3
:100B6000A2F2B2FA82F203F4701020FA02F21548EF
:100B7000845C4FF4400090FAA0F0B0FA80F203F4E5
:100B800040008B68D040DB034CBF0D4B0B4B01305A
:100B90006343B3FBF0F010BD48684FF4604393FA31
:100BA000A3F3B3FA83F300F46040D840431C4FF43E
:100BB0000040984010BD00BF003802400024F400FF
:100BC00000127A00E82300086A4B2DE9F0411A6808
:100BD000064602F001028A420D4630D3326894077D
:100BE00040D4D00746D4634B1A6802F00102954204
:100BF000C0F0AE803268510700F1B380130707D50B
:100C00005D4A3169936823F4605343EAC1039360FA
:100C1000FFF794FF584BF0229B6892FAA2F2B2FAC7
:100C200082F203F0F003D340544AD35CD840544BD3
:100C30001860002001F0D0FA0020BDE8F081012901
:100C400002BF1A6842F004021A601A6822F0010218
:100C50000A431A601B6803F001039942BED00120C9
:100C6000BDE8F0814449B0688B6823F0F00303438A
:100C70008B60B6E772684049022A0FD14FF4003307
:100C800093FAA3F0086893FAA3F3B3FA83F301216C
:100C900003F01F0301FA03F3034213E0032A02D116
:100CA0004FF00073ECE7012A29D1022393FAA3F055
:100CB000096893FAA3F3B3FA83F303F01F0302FA6C
:100CC00003F30B42CBD02C4C41F28838A36823F0BD
:100CD00003031A43A260FFF767FA73680746022B03
:100CE00010D1A36803F00C03082B3FF47CAFFFF78F
:100CF0005BFAC01B4045F4D90320BDE8F0814FF4F6
:100D00000073BDE7032B0BD1A36803F00C030C2B7E
:100D10003FF469AFFFF748FAC01B4045F4D9EBE751
:100D2000012B10D1A36803F00C03042B3FF45BAF3D
:100D3000FFF73AFAC01B4045F4D9DDE7FFF734FA74
:100D4000C01B4045D8D8A36813F00C0FF6D14AE772
:100D50001A6822F001021A601B68DA073FF57FAFBC
:100D600048E70549F0688B6823F4E06303438B6030
:100D700044E700BF003C024000380240D023000896
:100D800004000020084B4FF4E0629B6892FAA2F244
:100D9000B2FA82F203F4E063D340044AD35C044A1B
:100DA0001068D840704700BF00380240E0230008B8
:100DB00004000020084B4FF460529B6892FAA2F2A4
:100DC000B2FA82F203F46053D340044AD35C044A7B
:100DD0001068D840704700BF00380240E023000888
:100DE000040000200F2303600B4B9A6802F00302FB
:100DF00042609A6802F0F00282609A6802F4E0624F
:100E0000C2609B68DB0803F4E0630361034B1B686B
:100E100003F001030B60704700380240003C0240C1
:100E2000B0F1804F03680ED01C4A90420BD002F5FF
:100E30008062904207D002F58062904203D002F5B2
:100E40007C42904216D14A6823F07003B0F1804F83
:100E500043EA020315D0114A904212D002F5806293
:100E600090420ED002F5806290420AD002F57C4298
:100E7000904206D00A4A904203D002F58062904226
:100E800003D1CA6823F44073134303608B68C362C1
:100E90000B68836201234361704700BF0004004078
:100EA000000C0140704710B50446A0B190F83530F1
:100EB00003F0FF021BB980F83420FFF7F3FF022391
:100EC000206884F83530211DFFF7AAFF0123002098
:100ED00084F8353010BD012010BD03680020DA68A9
:100EE00042F00102DA601A6842F001021A607047AB
:100EF0007047704770477047036810B51A69044619
:100F000091070ED5DA6892070BD56FF002021A61CD
:100F100001229B69027599075CD0FFF7EAFF002365
:100F2000237523681A69520710D5DA6850070DD562
:100F30006FF004021A6102229B69227513F4407F4C
:100F400020464DD0FFF7D5FF0023237523681A698B
:100F500011070FD5DA6812070CD56FF008021A6175
:100F60000422DB6922759B0720463FD0FFF7C1FFB3
:100F70000023237523681A69D00610D5DA68D106D4
:100F80000DD56FF010021A610822DB69227513F487
:100F9000407F204630D0FFF7ACFF00232375236845
:100FA0001A69D20708D5DA68D00705D56FF00102B3
:100FB00020461A6101F0ACF823681A69510608D579
:100FC000DA68520605D56FF0400220461A61FFF735
:100FD00092FF10BDFFF78CFF2046FFF78BFF9EE7C7
:100FE000FFF786FF2046FFF785FFADE7FFF780FF9D
:100FF0002046FFF77FFFBBE7FFF77AFF2046FFF7AA
:1010000079FFCAE72DE9F04781460568C2682B6978
:10101000C16923F4405313432B6183680069EA6874
:101020000343D9F8140022F41642034322F00C02C1
:101030000B431343EB606B69D9F8182023F440731A
:101040001343B1F5004F6B617E4B7FD19D424FF052
:10105000190447D1FFF7AEFE04FB00F3D9F8047082
:101060004FF064087F00B3FBF7F3B3FBF8F31F0105
:10107000FFF7A0FE6043D9F804305B00B0FBF3F645
:10108000FFF798FE6043D9F804305B00B0FBF3F340
:10109000B3FBF8F308FB1363DB003233B3FBF8F365
:1010A0005B0003F4F876FFF785FE6043D9F804206F
:1010B0005200B0FBF2FAFFF77DFE6043D9F804302E
:1010C0005B00B0FBF3F3B3FBF8F308FB13A3DB0007
:1010D0003233B3FBF8F303F007033B443344AB6014
:1010E000BDE8F087FFF74EFE04FB00F3D9F804706B
:1010F0004FF064087F00B3FBF7F3B3FBF8F31F0175
:10110000FFF740FE6043D9F804305B00B0FBF3F614
:10111000FFF738FE6043D9F804305B00B0FBF3F30F
:10112000B3FBF8F308FB1363DB003233B3FBF8F3D4
:101130005B0003F4F876FFF725FE6043D9F804203E
:101140005200B0FBF2FAFFF71DFEB6E79D424FF0EA
:10115000190443D1FFF72EFE04FB00F3D9F8046015
:101160004FF06408B600B3FBF6F3B3FBF8F31E01CF
:10117000FFF720FE6043D9F804309B00B0FBF3F783
:10118000FFF718FE6043D9F804309B00B0FBF3F37F
:10119000B3FBF8F308FB13731B013233B3FBF8F313
:1011A00003F0F007FFF706FE6043D9F80420920031
:1011B000B0FBF2FAFFF7FEFD6043D9F804309B0064
:1011C000B0FBF3F3B3FBF8F308FB13A31B013233BB
:1011D000B3FBF8F303F00F033B437FE7FFF7D2FDC8
:1011E00004FB00F3D9F804604FF06408B600B3FBC9
:1011F000F6F3B3FBF8F31E01FFF7C4FD6043D9F823
:1012000004309B00B0FBF3F7FFF7BCFD6043D9F857
:1012100004309B00B0FBF3F3B3FBF8F308FB13734C
:101220001B013233B3FBF8F303F0F007FFF7AAFD1D
:101230006043D9F804209200B0FBF2FAFFF7A2FD58
:10124000BAE700BF0038014010B5044630B390F84B
:10125000393003F0FF021BB980F8382000F088FF16
:101260000223226884F83930D368204623F40053DF
:10127000D360FFF7C7FE236800201A6922F490426A
:101280001A615A6922F02A025A61DA6842F400525D
:10129000DA600123E06384F8393010BD012010BD0D
:1012A00008B500F0F7FB002008BD30B5B0F90840E4
:1012B00085B0842C08BF0024028A18BF03340B4673
:1012C00090E8220003A801900094284600F012FB49
:1012D000012814BF0020039805B030BD08B50028D0
:1012E00008BF012000F024FD002008BD002203C833
:1012F00000F086BA00F1080343604FF0FF32C3608C
:10130000036100238260036070470023036170471C
:1013100043689A684B608A609A6851609960036874
:1013200008610133036070470A6830B5531C0AD165
:1013300003695A684A6091608B605960036808616C
:101340000133036030BD00F108035C682568AA42E0
:10135000EFD32346F9E74168826803698A608268AF
:1013600051605968884208BF5A60002202611868BB
:1013700001381860704700000A4B1B68013308D021
:101380004FF0500383F31188BFF36F8FBFF34F8F7C
:10139000FEE74FF0500383F31188BFF36F8FBFF365
:1013A0004F8FFEE70000002006480068006880F3C9
:1013B000088862B661B6BFF34F8FBFF36F8F00DF4F
:1013C00000BF000008ED00E04FF0807340F8043CDF
:1013D000054B21F0010140F8081C40F80C3C40F896
:1013E000202C4038704700BF79130008000000002F
:1013F000074B19680868B0E8F00F80F30988BFF35D
:101400006F8F4FF0000080F311884EF00D0E704783
:10141000440C00204FF0500383F31188BFF36F8F0B
:10142000BFF34F8F0A4A13680133012B13600DD1AC
:10143000084B1B6813F0FF0F08D04FF0500383F3E5
:101440001188BFF36F8FBFF34F8FFEE7704700BF68
:101450000000002004ED00E0084A136843B94FF093
:10146000500383F31188BFF36F8FBFF34F8FFEE7F5
:10147000013B13600BB983F3118870470000002013
:10148000EFF30980BFF36F8F0D4B1A6820E9F00F5F
:1014900010602DE908404FF0500080F3118800F0F3
:1014A000A5FC4FF0000080F31188BDE808401968E2
:1014B0000868B0E8F00F80F30988BFF36F8F7047BA
:1014C000440C002008B54FF0500383F31188BFF39C
:1014D0006F8FBFF34F8F00F021FB18B14FF0805298
:1014E000024B1A60002383F3118808BD04ED00E06D
:1014F0004FF47A72054B1B68B3FBF2F3044A013BCD
:1015000013600722034B1A60704700BF04000020DD
:1015100014E000E010E000E013B51F4B00211A7842
:10152000D2B20192FF221A701B781C4ADBB28DF8EE
:1015300003309DF8033003F0500313700722184B5B
:101540001A609DF80300541E00061CD401B11A60F5
:101550001A68120202F4E0621A60019B0E4ADBB2C2
:101560001370104B1A6842F470021A601A6842F045
:1015700070421A60FFF7BCFF00220B4B1A60FFF7A6
:1015800013FFFFF7F9FE9DF8032001215200D2B2AC
:101590008DF803202246D4E700E400E02400002078
:1015A0002800002020ED00E00000002010B50F4BC7
:1015B0001A68824218D35C681919884201BF4168D1
:1015C000184609195960446801198A4207D1084927
:1015D00009688A421FBF5168126809194160984220
:1015E000026018BF186010BD1346E1E73C0C0020F4
:1015F0002C0000202DE9F041044600F087FA3E4916
:101600003E4D0B680BBB3E4A56071DBFD01D20F058
:10161000070002F540634FF440631CBF02461B1AEB
:1016200000201344374E083B23F0070370603260FC
:10163000586018600B60981A1360334B5060186044
:10164000324B18604FF000432B602F68274216D1B1
:10165000002C40D004F1080358071CBF23F00703F7
:10166000083363B1294A16689046B34207D8254A21
:1016700015686868834204D809688D4207D1002440
:1016800029E02C68002CF7D02A462546F1E7296886
:1016900014681160C21A102A0FD9E818410708D03F
:1016A0004FF0500383F31188BFF36F8FBFF34F8F59
:1016B000FEE742606B60FFF779FF6B681249F61A2C
:1016C0001F4300230868C8F80060864238BF0E60D8
:1016D00008346F602B6000F0B3FA630708D04FF056
:1016E000500383F31188BFF36F8FBFF34F8FFEE773
:1016F0002046BDE8F08100BF2C000020300C002007
:10170000300000203C0C0020380C0020340C00205D
:1017100010B5044670B3184A50F8043C12681342DE
:1017200008D14FF0500383F31188BFF36F8FBFF3DD
:101730004F8FFEE750F8081C41B14FF0500383F380
:101740001188BFF36F8FBFF34F8FFEE723EA0203C9
:1017500040F8043C00F0DAF9084A54F8043C1168F7
:10176000A4F108000B441360FFF720FFBDE8104010
:1017700000F066BA10BD00BF300C0020340C002011
:1017800038B50D46044640B94FF0500383F3118835
:10179000BFF36F8FBFF34F8FFEE7FFF73BFE206C69
:1017A000E36B22684343D1181B1A13446160E36062
:1017B0000021FF23A163A26084F8443084F84530FF
:1017C00095B9236963B104F1100000F049FB38B109
:1017D0004FF08052094B1A60BFF34F8FBFF36F8FEA
:1017E000FFF73AFE012038BD04F11000FFF782FD3B
:1017F00004F12400FFF77EFDF2E700BF04ED00E0F6
:1018000070B50D46064640B94FF0500383F311887A
:10181000BFF36F8FBFF34F8FFEE748434830FFF7AA
:10182000E9FE044638B145B92060E663256401212C
:101830002046FFF7A5FF204670BD00F14803036076
:10184000F3E70000064A13681968064B19B94FF010
:10185000FF321A6070471268D268D2685268F8E79F
:10186000480C0020200D0020F8B51B4B1B4E1D68B6
:10187000044630680F460430FFF76DFD334640B92B
:1018800001203168164EC96A3268884022EA000297
:101890003260621C07D137B1196812480431BDE8C3
:1018A000F840FFF735BD2C441A68A542546007D9AB
:1018B0000D4A10681968BDE8F8400431FFF734BDDF
:1018C0000A4A106819680431FFF72EFD084B1A68A0
:1018D000944238BF1C60F8BD680D0020440C002005
:1018E000F00C0020400D00204C0C0020480C002083
:1018F000200D00202DE9F84F4FEA820A804650461D
:101900000F4699460B9EFFF775FE0546002800F02E
:1019100096805420FFF76EFE0446002800F08C806D
:10192000AAF1040A056355447B1E25F0070A00F15D
:1019300034020F37597802F8011B13F8011F09B15F
:10194000BB42F7D10A9D4FF0000B062D28BF06259C
:10195000271DE5626564384684F843B0C4F848B092
:10196000FFF7D3FCC5F1070504F11800FFF7CDFC24
:10197000C4F84CB02461A561646284F850B04A4652
:1019800041465046FFF720FD206006B13460FFF766
:1019900041FD324B324E1A68DFF8F08001321A6096
:1019A0003568002D4ED134601B68012B1DD108EB2A
:1019B00005001435FFF79EFC8C2DF8D1DFF8D09090
:1019C000284D4846FFF796FC2846FFF793FC26482B
:1019D000FFF790FC2548FFF78DFC2548FFF78AFCB0
:1019E000244BC3F80090244B1D600125234A244951
:1019F0001368086801331360E26A05FA02F30343CF
:101A000014200B6000FB02803946FFF781FCFFF7D2
:101A100023FD1C4B1B6863B13368DA6AE36A9A42A0
:101A200007D24FF08052184B1A60BFF34F8FBFF3AD
:101A30006F8F2846BDE8F88F2846FFF769FE4FF004
:101A4000FF35F6E70F4B1B68002BCED13368DA6AFF
:101A5000E36A9A4298BF3460C7E700BFDC0C0020FD
:101A6000440C0020080D0020280D0020540D0020FB
:101A7000400D0020480C00204C0C0020EC0C0020F5
:101A8000F00C00203C0D002004ED00E0500C002084
:101A9000F40C002013B50024164B0094019380220F
:101AA000234615491548FFF725FF012814D14FF0AB
:101AB000500383F31188BFF36F8FBFF34F8F4FF045
:101AC000FF320F4B1A600F4B18600F4B1C6002B0B7
:101AD000BDE81040FFF720BD013008D14FF05003A2
:101AE00083F31188BFF36F8FBFF34F8FFEE702B010
:101AF00010BD00BF1C0D0020AC230008791D00089C
:101B0000200D00203C0D0020680D0020024A1368C3
:101B100001331360704700BFE80C00202DE9F84F37
:101B20003C4B1B68002B53D13B4B1C6801341C60A1
:101B3000BCB93A4B1A68126842B14FF0500383F3B4
:101B40001188BFF36F8FBFF34F8FFEE7344A1968D8
:101B5000106818601160334A136801331360FFF78F
:101B600071FE314D4FF0000B2B68304F9C423ED33D
:101B7000DFF8A880DFF8C490D8F80020126872BBA4
:101B80004FF0FF322A6032E006F1040A5046FFF7B8
:101B9000E2FBB16A19B106F11800FFF7DCFB012284
:101BA0004FF0140EF06AD9F8003002FA00F1194330
:101BB0001F4BC9F800100EFB00305146FFF7A8FB81
:101BC0003868F16AC26A914228BF4FF0010BD3E72F
:101BD000184A4FF0000B13680133136011E0D8F876
:101BE0000020D268D66871688C42CDD229603A68EC
:101BF0000F4BD16A14224A439A58022A28BF4FF049
:101C0000010B0D4A1268002A18BF4FF0010B58460D
:101C1000BDE8F88FE80C0020680D0020480C00207B
:101C20004C0C0020240D0020200D0020440C00202E
:101C3000500C0020E40C00206C0D0020F00C002063
:101C40002DE9F843314C236843B94FF0500383F337
:101C50001188BFF36F8FBFF34F8FFEE7FFF7DAFBFB
:101C60002368013B236024682CB10024FFF7F4FBB8
:101C70002046BDE8F883264B1B68002BF5D0DFF823
:101C8000A890244FDFF8A480D9F80030E3B90CB154
:101C9000FFF7D8FD204D2C6844B101271F4EFFF7F8
:101CA0003DFF00B13760013CF9D12C601B4B1B6834
:101CB000002BDAD04FF08052194B1A60BFF34F8FD0
:101CC000BFF36F8F0124D1E7D9F80C300125DC6810
:101CD000261D04F11800FFF73EFB3046FFF73BFBE3
:101CE0001420E26A396805FA02F30B4300FB028014
:101CF00031463B60FFF70CFB0A4BE26A1B68DB6A6C
:101D00009A4224BF054B1D60BEE700BFE80C0020CF
:101D1000DC0C0020F00C0020E40C00206C0D0020F6
:101D200004ED00E0440C0020280D0020500C0020A1
:101D300008B540B94FF080520D4B1A60BFF34F8F7A
:101D4000BFF36F8F08BD0B4B196841B14FF05003C3
:101D500083F31188BFF36F8FBFF34F8FFEE7FFF759
:101D6000D5FEFFF781FDFFF76BFF0028E2D008BD2D
:101D700004ED00E0E80C002008B5174E174C23686E
:101D800063B9174B1B68012BF8D94FF08052154BE4
:101D90001A60BFF34F8FBFF36F8FEFE7FFF7B6FE09
:101DA0003568FFF74DFF002DE9D0FFF733FBF368EF
:101DB000DD68281DFFF7CFFA0B4A1368013B13605B
:101DC0002368013B2360FFF747FB286BFFF7A0FC6C
:101DD0002846FFF79DFCD2E7540D0020E00C0020C0
:101DE000500C002004ED00E0DC0C0020174B10B577
:101DF0001A68174B12B101221A6010BD1A60154BF8
:101E00001B68B3FA83F31422DBB2C3F11F035A43F6
:101E100011498C58881844B94FF0500383F3118846
:101E2000BFF36F8FBFF34F8FFEE7446808326468DB
:101E30000A44944208BF6268446008BF42601422AA
:101E400002FB03135B68DA68044BD5E7E80C00205B
:101E50006C0D0020F00C0020500C0020440C0020E1
:101E600038B5C368DC6844B94FF0500383F3118878
:101E7000BFF36F8FBFF34F8FFEE704F118052846BD
:101E8000FFF769FA114B1B68E3B9251D2846FFF7D8
:101E900062FA01230E49E26A086893400343142062
:101EA0000B6029460B4B00FB0230FFF731FA0A4B5F
:101EB000E26A1B68DB6A9A4285BF0120074B00205B
:101EC000186038BD29460648EFE700BFE80C00203F
:101ED000F00C0020500C0020440C00206C0D002061
:101EE000280D002008B50120FFF7F8F9FBE708B539
:101EF0001E20FFF7F3F9FBE7F8B50025164F174C46
:101F00004FF400513846FEF779FA18BB012201352B
:101F100020212046FEF778FA44F62060FFF7DEF92C
:101F20004FF400513846FEF769FA0128E8D100263F
:101F3000B542E5D0012220212046FEF765FA42F2A3
:101F40001070FFF7CBF9002220212046FEF75CFA43
:101F50000136EDE70022DBE7000802400000024006
:101F600030B593B03422002105A800F0E9F9002132
:101F70001422684600F0E4F9124A0024136801258F
:101F800023F4C05343F400631360022305930E93BC
:101F90004FF40023102210934FF4000305A8099278
:101FA000119308950F94FEF775FA0F220323294623
:101FB00068468DE80C00029403940494FEF704FE36
:101FC00013B030BD0070004080B596B0FEF7D8F871
:101FD000FFF7C6FF1422002111A800F0B1F9414B10
:101FE0002021DA69404842F00402DA61DA6900250A
:101FF00002F004020192019ADA693C4C42F020029C
:10200000DA61DA6904F1080702F020020292029A0A
:10201000DA6907AE42F00102DA61DA6902F0010220
:102020000392039ADA6942F00202DA61DB69002264
:1020300003F002030493049BFEF7E6F94FF4005308
:1020400011932B4B11A92B4812931395FEF704F90A
:1020500020231193012311A923481293139514955A
:10206000FEF7FAF84FF4E1332348244A856080E80C
:102070000C000C23C560436105618561C561FFF7F4
:10208000E3F894E8030005AB83E80300294618460B
:10209000FFF72CF91A4B18600FCF0FC63B68294683
:1020A00007A83360FFF701F9164B04F11C070CAECB
:1020B00018600FCF0FC63B6829460CA83360FFF7A6
:1020C000F4F8114B11AE303418600FCC0FC62368F2
:1020D000294611A83360FFF7E8F80C4B1860FFF7AA
:1020E000DFF8FEE7003802400000024068230008E5
:1020F0000000111000080240840D00200044004040
:102100007C0D0020740D0020780D0020800D002033
:102110000368B3F1804F01D1FEF73EB8704700006D
:102120001FB5124B0F215A6A6FF0010042F00042B6
:102130005A625A6A02F000420192019A1A6A42F007
:1021400001021A621A6A02F001020292029A5A6AA3
:1021500042F080525A625B6A002203F0805303937C
:10216000039BFEF739F805B05DF804FB0038024028
:1021700010B5044688B01422002103A800F0E0F84E
:102180002268134B9A4221D103F5FA335A6A03A904
:1021900042F400325A625A6A0E4802F40032019246
:1021A000019ADA6942F00102DA61DB6903F00103A6
:1021B0000293029B0C2303930223049301230593B0
:1021C0000323069307230793FEF746F808B010BDD4
:1021D000004400400000024010B5014688B00022D3
:1021E0001C20FDF7F9FF1C20FEF72AF8144B01A96B
:1021F0005A6A03A842F001025A625B6A114C03F06A
:1022000001030293029BFEF7EDFDFEF7BBFD4FF0CD
:102210008043236040F2E733E3600B4BB0FBF3F005
:1022200000230138606020462361A360FEF73BFE77
:1022300020B92046FEF751FE08B010BD0120FBE793
:1022400000380240C40D002040420F007047FEE7F6
:10225000FEE7FEE7FEE770470148FEF74DBE00BF10
:10226000C40D00200E4B1A6842F480721A609968FF
:102270000C4A0A409A601A6822F0885222F0011231
:102280001A601A6822F480221A609A6822F47D0289
:102290009A600022DA604FF00062034B9A60704748
:1022A000003802400CC0FF8800ED00E0002103E090
:1022B0000B4B5B58435004310A480B4B42189A426F
:1022C000F6D30A4A02E0002342F8043B084B9A4244
:1022D000F9D3FFF7C7FF00F00FF8FFF775FE70475F
:1022E000FC23000800000020080000200800002057
:1022F000FC0D0020FEE7000070B500250C4E0D4CD3
:10230000A41BA410A54209D100F022F800250A4E12
:102310000A4CA41BA410A54205D170BD56F8253067
:1023200098470135EEE756F8253098470135F2E732
:10233000F4230008F4230008F4230008F82300081D
:1023400003460244934200D1704703F8011BF9E7AA
:10235000F8B500BFF8BC08BC9E467047F8B500BF92
:08236000F8BC08BC9E46704762
:102368001000000002000000C4230008E51E000859
:10237800000000000000000080000000BC230008EE
:10238800EF1E0008FDFF00000000000080000000B4
:10239800B1230008F91E0008FDFF0000000000003E
:1023A8008000000049444C4500627574746F6E5497
:1023B80061736B006C65645461736B00646566617E
:1023C800756C745461736B0000000000000000001D
:1023D80001020304060708090000000001020304C3
:0C23E800030406080C1018203000000050
:0423F4006501000877
:0423F8004101000897
:0823FC00AAAAAAAA68FF1F00AB
:04000005080022AD20
:00000001FF
